{
  "_format": "hh-sol-artifact-1",
  "contractName": "Dwitter",
  "sourceName": "contracts/Dwitter.sol",
  "address": "0x2D6b5B2e1F639423e4b7b8c40C4bBE73CDAFF845",
  "abi": [
    {
      "anonymous": false,
      "inputs": [
        {
          "indexed": true,
          "internalType": "address",
          "name": "owner",
          "type": "address"
        },
        {
          "indexed": true,
          "internalType": "address",
          "name": "approved",
          "type": "address"
        },
        {
          "indexed": true,
          "internalType": "uint256",
          "name": "tokenId",
          "type": "uint256"
        }
      ],
      "name": "Approval",
      "type": "event"
    },
    {
      "anonymous": false,
      "inputs": [
        {
          "indexed": true,
          "internalType": "address",
          "name": "owner",
          "type": "address"
        },
        {
          "indexed": true,
          "internalType": "address",
          "name": "operator",
          "type": "address"
        },
        {
          "indexed": false,
          "internalType": "bool",
          "name": "approved",
          "type": "bool"
        }
      ],
      "name": "ApprovalForAll",
      "type": "event"
    },
    {
      "anonymous": false,
      "inputs": [
        {
          "indexed": true,
          "internalType": "address",
          "name": "from",
          "type": "address"
        },
        {
          "indexed": true,
          "internalType": "address",
          "name": "to",
          "type": "address"
        },
        {
          "indexed": true,
          "internalType": "uint256",
          "name": "tokenId",
          "type": "uint256"
        }
      ],
      "name": "Transfer",
      "type": "event"
    },
    {
      "inputs": [
        {
          "internalType": "uint256",
          "name": "tweetIndex",
          "type": "uint256"
        },
        {
          "internalType": "string",
          "name": "prefComments",
          "type": "string"
        }
      ],
      "name": "addComment",
      "outputs": [],
      "stateMutability": "nonpayable",
      "type": "function"
    },
    {
      "inputs": [
        {
          "internalType": "address",
          "name": "to",
          "type": "address"
        },
        {
          "internalType": "uint256",
          "name": "tokenId",
          "type": "uint256"
        }
      ],
      "name": "approve",
      "outputs": [],
      "stateMutability": "nonpayable",
      "type": "function"
    },
    {
      "inputs": [
        {
          "internalType": "address",
          "name": "owner",
          "type": "address"
        }
      ],
      "name": "balanceOf",
      "outputs": [
        {
          "internalType": "uint256",
          "name": "",
          "type": "uint256"
        }
      ],
      "stateMutability": "view",
      "type": "function"
    },
    {
      "inputs": [],
      "name": "getAllTweets",
      "outputs": [
        {
          "components": [
            {
              "internalType": "string",
              "name": "name",
              "type": "string"
            },
            {
              "internalType": "string",
              "name": "description",
              "type": "string"
            },
            {
              "internalType": "uint256",
              "name": "upvotes",
              "type": "uint256"
            },
            {
              "internalType": "string[]",
              "name": "comments",
              "type": "string[]"
            },
            {
              "internalType": "address",
              "name": "fromAddress",
              "type": "address"
            }
          ],
          "internalType": "struct Dwitter.tweet[]",
          "name": "",
          "type": "tuple[]"
        }
      ],
      "stateMutability": "view",
      "type": "function"
    },
    {
      "inputs": [
        {
          "internalType": "uint256",
          "name": "tokenId",
          "type": "uint256"
        }
      ],
      "name": "getApproved",
      "outputs": [
        {
          "internalType": "address",
          "name": "",
          "type": "address"
        }
      ],
      "stateMutability": "view",
      "type": "function"
    },
    {
      "inputs": [
        {
          "internalType": "address",
          "name": "owner",
          "type": "address"
        },
        {
          "internalType": "address",
          "name": "operator",
          "type": "address"
        }
      ],
      "name": "isApprovedForAll",
      "outputs": [
        {
          "internalType": "bool",
          "name": "",
          "type": "bool"
        }
      ],
      "stateMutability": "view",
      "type": "function"
    },
    {
      "inputs": [],
      "name": "name",
      "outputs": [
        {
          "internalType": "string",
          "name": "",
          "type": "string"
        }
      ],
      "stateMutability": "view",
      "type": "function"
    },
    {
      "inputs": [
        {
          "internalType": "uint256",
          "name": "tokenId",
          "type": "uint256"
        }
      ],
      "name": "ownerOf",
      "outputs": [
        {
          "internalType": "address",
          "name": "",
          "type": "address"
        }
      ],
      "stateMutability": "view",
      "type": "function"
    },
    {
      "inputs": [
        {
          "internalType": "address",
          "name": "from",
          "type": "address"
        },
        {
          "internalType": "address",
          "name": "to",
          "type": "address"
        },
        {
          "internalType": "uint256",
          "name": "tokenId",
          "type": "uint256"
        }
      ],
      "name": "safeTransferFrom",
      "outputs": [],
      "stateMutability": "nonpayable",
      "type": "function"
    },
    {
      "inputs": [
        {
          "internalType": "address",
          "name": "from",
          "type": "address"
        },
        {
          "internalType": "address",
          "name": "to",
          "type": "address"
        },
        {
          "internalType": "uint256",
          "name": "tokenId",
          "type": "uint256"
        },
        {
          "internalType": "bytes",
          "name": "data",
          "type": "bytes"
        }
      ],
      "name": "safeTransferFrom",
      "outputs": [],
      "stateMutability": "nonpayable",
      "type": "function"
    },
    {
      "inputs": [
        {
          "internalType": "address",
          "name": "operator",
          "type": "address"
        },
        {
          "internalType": "bool",
          "name": "approved",
          "type": "bool"
        }
      ],
      "name": "setApprovalForAll",
      "outputs": [],
      "stateMutability": "nonpayable",
      "type": "function"
    },
    {
      "inputs": [
        {
          "internalType": "bytes4",
          "name": "interfaceId",
          "type": "bytes4"
        }
      ],
      "name": "supportsInterface",
      "outputs": [
        {
          "internalType": "bool",
          "name": "",
          "type": "bool"
        }
      ],
      "stateMutability": "view",
      "type": "function"
    },
    {
      "inputs": [],
      "name": "symbol",
      "outputs": [
        {
          "internalType": "string",
          "name": "",
          "type": "string"
        }
      ],
      "stateMutability": "view",
      "type": "function"
    },
    {
      "inputs": [
        {
          "internalType": "uint256",
          "name": "_tokenId",
          "type": "uint256"
        }
      ],
      "name": "tokenURI",
      "outputs": [
        {
          "internalType": "string",
          "name": "",
          "type": "string"
        }
      ],
      "stateMutability": "view",
      "type": "function"
    },
    {
      "inputs": [
        {
          "internalType": "address",
          "name": "from",
          "type": "address"
        },
        {
          "internalType": "address",
          "name": "to",
          "type": "address"
        },
        {
          "internalType": "uint256",
          "name": "tokenId",
          "type": "uint256"
        }
      ],
      "name": "transferFrom",
      "outputs": [],
      "stateMutability": "nonpayable",
      "type": "function"
    },
    {
      "inputs": [
        {
          "internalType": "uint256",
          "name": "",
          "type": "uint256"
        }
      ],
      "name": "tweets",
      "outputs": [
        {
          "internalType": "string",
          "name": "name",
          "type": "string"
        },
        {
          "internalType": "string",
          "name": "description",
          "type": "string"
        },
        {
          "internalType": "uint256",
          "name": "upvotes",
          "type": "uint256"
        },
        {
          "internalType": "address",
          "name": "fromAddress",
          "type": "address"
        }
      ],
      "stateMutability": "view",
      "type": "function"
    },
    {
      "inputs": [
        {
          "internalType": "uint256",
          "name": "tweetIndex",
          "type": "uint256"
        }
      ],
      "name": "upvote",
      "outputs": [],
      "stateMutability": "nonpayable",
      "type": "function"
    },
    {
      "inputs": [
        {
          "internalType": "string",
          "name": "prefName",
          "type": "string"
        },
        {
          "internalType": "string",
          "name": "prefDesc",
          "type": "string"
        }
      ],
      "name": "writeTweet",
      "outputs": [],
      "stateMutability": "nonpayable",
      "type": "function"
    }
  ],
  "bytecode": "0x60806040523480156200001157600080fd5b506040518060400160405280600781526020017f44776974746572000000000000000000000000000000000000000000000000008152506040518060400160405280600281526020017f4454000000000000000000000000000000000000000000000000000000000000815250816000908051906020019062000096929190620000b8565b508060019080519060200190620000af929190620000b8565b505050620001cd565b828054620000c69062000168565b90600052602060002090601f016020900481019282620000ea576000855562000136565b82601f106200010557805160ff191683800117855562000136565b8280016001018555821562000136579182015b828111156200013557825182559160200191906001019062000118565b5b50905062000145919062000149565b5090565b5b80821115620001645760008160009055506001016200014a565b5090565b600060028204905060018216806200018157607f821691505b602082108114156200019857620001976200019e565b5b50919050565b7f4e487b7100000000000000000000000000000000000000000000000000000000600052602260045260246000fd5b613a2780620001dd6000396000f3fe608060405234801561001057600080fd5b50600436106101165760003560e01c806370a08231116100a2578063aa7e568311610071578063aa7e5683146102dd578063b88d4fde146102f9578063c87b56dd14610315578063e8d857b014610345578063e985e9c51461037857610116565b806370a08231146102575780639558726b1461028757806395d89b41146102a3578063a22cb465146102c157610116565b8063095ea7b3116100e9578063095ea7b3146101b557806323b872dd146101d157806342842e0e146101ed57806353256135146102095780636352211e1461022757610116565b806301ddf0701461011b57806301ffc9a71461013757806306fdde0314610167578063081812fc14610185575b600080fd5b61013560048036038101906101309190612504565b6103a8565b005b610151600480360381019061014c9190612446565b61040e565b60405161015e9190612d91565b60405180910390f35b61016f6104f0565b60405161017c9190612dac565b60405180910390f35b61019f600480360381019061019a9190612504565b610582565b6040516101ac9190612d08565b60405180910390f35b6101cf60048036038101906101ca919061240a565b6105c8565b005b6101eb60048036038101906101e69190612304565b6106e0565b005b61020760048036038101906102029190612304565b610740565b005b610211610760565b60405161021e9190612d6f565b60405180910390f35b610241600480360381019061023c9190612504565b610a1c565b60405161024e9190612d08565b60405180910390f35b610271600480360381019061026c919061229f565b610ace565b60405161027e9190612f81565b60405180910390f35b6102a1600480360381019061029c9190612498565b610b86565b005b6102ab610d32565b6040516102b89190612dac565b60405180910390f35b6102db60048036038101906102d691906123ce565b610dc4565b005b6102f760048036038101906102f2919061252d565b610dda565b005b610313600480360381019061030e9190612353565b610e63565b005b61032f600480360381019061032a9190612504565b610ec5565b60405161033c9190612dac565b60405180910390f35b61035f600480360381019061035a9190612504565b611006565b60405161036f9493929190612dce565b60405180910390f35b610392600480360381019061038d91906122c8565b611176565b60405161039f9190612d91565b60405180910390f35b6001600782815481106103e4577f4e487b7100000000000000000000000000000000000000000000000000000000600052603260045260246000fd5b9060005260206000209060050201600201600082825461040491906130fe565b9250508190555050565b60007f80ac58cd000000000000000000000000000000000000000000000000000000007bffffffffffffffffffffffffffffffffffffffffffffffffffffffff1916827bffffffffffffffffffffffffffffffffffffffffffffffffffffffff191614806104d957507f5b5e139f000000000000000000000000000000000000000000000000000000007bffffffffffffffffffffffffffffffffffffffffffffffffffffffff1916827bffffffffffffffffffffffffffffffffffffffffffffffffffffffff1916145b806104e957506104e88261120a565b5b9050919050565b6060600080546104ff906132c9565b80601f016020809104026020016040519081016040528092919081815260200182805461052b906132c9565b80156105785780601f1061054d57610100808354040283529160200191610578565b820191906000526020600020905b81548152906001019060200180831161055b57829003601f168201915b5050505050905090565b600061058d82611274565b6004600083815260200190815260200160002060009054906101000a900473ffffffffffffffffffffffffffffffffffffffff169050919050565b60006105d382610a1c565b90508073ffffffffffffffffffffffffffffffffffffffff168373ffffffffffffffffffffffffffffffffffffffff161415610644576040517f08c379a000000000000000000000000000000000000000000000000000000000815260040161063b90612f41565b60405180910390fd5b8073ffffffffffffffffffffffffffffffffffffffff166106636112bf565b73ffffffffffffffffffffffffffffffffffffffff16148061069257506106918161068c6112bf565b611176565b5b6106d1576040517f08c379a00000000000000000000000000000000000000000000000000000000081526004016106c890612ee1565b60405180910390fd5b6106db83836112c7565b505050565b6106f16106eb6112bf565b82611380565b610730576040517f08c379a000000000000000000000000000000000000000000000000000000000815260040161072790612f61565b60405180910390fd5b61073b838383611415565b505050565b61075b83838360405180602001604052806000815250610e63565b505050565b60606007805480602002602001604051908101604052809291908181526020016000905b82821015610a1357838290600052602060002090600502016040518060a00160405290816000820180546107b7906132c9565b80601f01602080910402602001604051908101604052809291908181526020018280546107e3906132c9565b80156108305780601f1061080557610100808354040283529160200191610830565b820191906000526020600020905b81548152906001019060200180831161081357829003601f168201915b50505050508152602001600182018054610849906132c9565b80601f0160208091040260200160405190810160405280929190818152602001828054610875906132c9565b80156108c25780601f10610897576101008083540402835291602001916108c2565b820191906000526020600020905b8154815290600101906020018083116108a557829003601f168201915b505050505081526020016002820154815260200160038201805480602002602001604051908101604052809291908181526020016000905b828210156109a6578382906000526020600020018054610919906132c9565b80601f0160208091040260200160405190810160405280929190818152602001828054610945906132c9565b80156109925780601f1061096757610100808354040283529160200191610992565b820191906000526020600020905b81548152906001019060200180831161097557829003601f168201915b5050505050815260200190600101906108fa565b5050505081526020016004820160009054906101000a900473ffffffffffffffffffffffffffffffffffffffff1673ffffffffffffffffffffffffffffffffffffffff1673ffffffffffffffffffffffffffffffffffffffff168152505081526020019060010190610784565b50505050905090565b6000806002600084815260200190815260200160002060009054906101000a900473ffffffffffffffffffffffffffffffffffffffff169050600073ffffffffffffffffffffffffffffffffffffffff168173ffffffffffffffffffffffffffffffffffffffff161415610ac5576040517f08c379a0000000000000000000000000000000000000000000000000000000008152600401610abc90612f21565b60405180910390fd5b80915050919050565b60008073ffffffffffffffffffffffffffffffffffffffff168273ffffffffffffffffffffffffffffffffffffffff161415610b3f576040517f08c379a0000000000000000000000000000000000000000000000000000000008152600401610b3690612ec1565b60405180910390fd5b600360008373ffffffffffffffffffffffffffffffffffffffff1673ffffffffffffffffffffffffffffffffffffffff168152602001908152602001600020549050919050565b610b923360065461167c565b60076040518060a0016040528084815260200183815260200160008152602001600067ffffffffffffffff811115610bf3577f4e487b7100000000000000000000000000000000000000000000000000000000600052604160045260246000fd5b604051908082528060200260200182016040528015610c2657816020015b6060815260200190600190039081610c115790505b5081526020013373ffffffffffffffffffffffffffffffffffffffff1681525090806001815401808255809150506001900390600052602060002090600502016000909190919091506000820151816000019080519060200190610c8b929190611fff565b506020820151816001019080519060200190610ca8929190611fff565b50604082015181600201556060820151816003019080519060200190610ccf929190612085565b5060808201518160040160006101000a81548173ffffffffffffffffffffffffffffffffffffffff021916908373ffffffffffffffffffffffffffffffffffffffff16021790555050506001600654610d2891906130fe565b6006819055505050565b606060018054610d41906132c9565b80601f0160208091040260200160405190810160405280929190818152602001828054610d6d906132c9565b8015610dba5780601f10610d8f57610100808354040283529160200191610dba565b820191906000526020600020905b815481529060010190602001808311610d9d57829003601f168201915b5050505050905090565b610dd6610dcf6112bf565b838361169a565b5050565b60078281548110610e14577f4e487b7100000000000000000000000000000000000000000000000000000000600052603260045260246000fd5b906000526020600020906005020160030181908060018154018082558091505060019003906000526020600020016000909190919091509080519060200190610e5e929190611fff565b505050565b610e74610e6e6112bf565b83611380565b610eb3576040517f08c379a0000000000000000000000000000000000000000000000000000000008152600401610eaa90612f61565b60405180910390fd5b610ebf84848484611807565b50505050565b6060600060078381548110610f03577f4e487b7100000000000000000000000000000000000000000000000000000000600052603260045260246000fd5b906000526020600020906005020160000160078481548110610f4e577f4e487b7100000000000000000000000000000000000000000000000000000000600052603260045260246000fd5b9060005260206000209060050201600101610fb360078681548110610f9c577f4e487b7100000000000000000000000000000000000000000000000000000000600052603260045260246000fd5b906000526020600020906005020160020154611863565b604051602001610fc593929190612c05565b6040516020818303038152906040529050610fdf81611a10565b604051602001610fef9190612ce6565b604051602081830303815290604052915050919050565b6007818154811061101657600080fd5b9060005260206000209060050201600091509050806000018054611039906132c9565b80601f0160208091040260200160405190810160405280929190818152602001828054611065906132c9565b80156110b25780601f10611087576101008083540402835291602001916110b2565b820191906000526020600020905b81548152906001019060200180831161109557829003601f168201915b5050505050908060010180546110c7906132c9565b80601f01602080910402602001604051908101604052809291908181526020018280546110f3906132c9565b80156111405780601f1061111557610100808354040283529160200191611140565b820191906000526020600020905b81548152906001019060200180831161112357829003601f168201915b5050505050908060020154908060040160009054906101000a900473ffffffffffffffffffffffffffffffffffffffff16905084565b6000600560008473ffffffffffffffffffffffffffffffffffffffff1673ffffffffffffffffffffffffffffffffffffffff16815260200190815260200160002060008373ffffffffffffffffffffffffffffffffffffffff1673ffffffffffffffffffffffffffffffffffffffff16815260200190815260200160002060009054906101000a900460ff16905092915050565b60007f01ffc9a7000000000000000000000000000000000000000000000000000000007bffffffffffffffffffffffffffffffffffffffffffffffffffffffff1916827bffffffffffffffffffffffffffffffffffffffffffffffffffffffff1916149050919050565b61127d81611b9a565b6112bc576040517f08c379a00000000000000000000000000000000000000000000000000000000081526004016112b390612f21565b60405180910390fd5b50565b600033905090565b816004600083815260200190815260200160002060006101000a81548173ffffffffffffffffffffffffffffffffffffffff021916908373ffffffffffffffffffffffffffffffffffffffff160217905550808273ffffffffffffffffffffffffffffffffffffffff1661133a83610a1c565b73ffffffffffffffffffffffffffffffffffffffff167f8c5be1e5ebec7d5bd14f71427d1e84f3dd0314c0f7b2291e5b200ac8c7c3b92560405160405180910390a45050565b60008061138c83610a1c565b90508073ffffffffffffffffffffffffffffffffffffffff168473ffffffffffffffffffffffffffffffffffffffff1614806113ce57506113cd8185611176565b5b8061140c57508373ffffffffffffffffffffffffffffffffffffffff166113f484610582565b73ffffffffffffffffffffffffffffffffffffffff16145b91505092915050565b8273ffffffffffffffffffffffffffffffffffffffff1661143582610a1c565b73ffffffffffffffffffffffffffffffffffffffff161461148b576040517f08c379a000000000000000000000000000000000000000000000000000000000815260040161148290612e41565b60405180910390fd5b600073ffffffffffffffffffffffffffffffffffffffff168273ffffffffffffffffffffffffffffffffffffffff1614156114fb576040517f08c379a00000000000000000000000000000000000000000000000000000000081526004016114f290612e81565b60405180910390fd5b611506838383611c06565b6115116000826112c7565b6001600360008573ffffffffffffffffffffffffffffffffffffffff1673ffffffffffffffffffffffffffffffffffffffff168152602001908152602001600020600082825461156191906131df565b925050819055506001600360008473ffffffffffffffffffffffffffffffffffffffff1673ffffffffffffffffffffffffffffffffffffffff16815260200190815260200160002060008282546115b891906130fe565b92505081905550816002600083815260200190815260200160002060006101000a81548173ffffffffffffffffffffffffffffffffffffffff021916908373ffffffffffffffffffffffffffffffffffffffff160217905550808273ffffffffffffffffffffffffffffffffffffffff168473ffffffffffffffffffffffffffffffffffffffff167fddf252ad1be2c89b69c2b068fc378daa952ba7f163c4a11628f55a4df523b3ef60405160405180910390a4611677838383611c0b565b505050565b611696828260405180602001604052806000815250611c10565b5050565b8173ffffffffffffffffffffffffffffffffffffffff168373ffffffffffffffffffffffffffffffffffffffff161415611709576040517f08c379a000000000000000000000000000000000000000000000000000000000815260040161170090612ea1565b60405180910390fd5b80600560008573ffffffffffffffffffffffffffffffffffffffff1673ffffffffffffffffffffffffffffffffffffffff16815260200190815260200160002060008473ffffffffffffffffffffffffffffffffffffffff1673ffffffffffffffffffffffffffffffffffffffff16815260200190815260200160002060006101000a81548160ff0219169083151502179055508173ffffffffffffffffffffffffffffffffffffffff168373ffffffffffffffffffffffffffffffffffffffff167f17307eab39ab6107e8899845ad3d59bd9653f200f220920489ca2b5937696c31836040516117fa9190612d91565b60405180910390a3505050565b611812848484611415565b61181e84848484611c6b565b61185d576040517f08c379a000000000000000000000000000000000000000000000000000000000815260040161185490612e21565b60405180910390fd5b50505050565b606060008214156118ab576040518060400160405280600181526020017f30000000000000000000000000000000000000000000000000000000000000008152509050611a0b565b600082905060005b600082146118dd5780806118c69061332c565b915050600a826118d69190613154565b91506118b3565b60008167ffffffffffffffff81111561191f577f4e487b7100000000000000000000000000000000000000000000000000000000600052604160045260246000fd5b6040519080825280601f01601f1916602001820160405280156119515781602001600182028036833780820191505090505b5090505b60008514611a045760018261196a91906131df565b9150600a856119799190613375565b603061198591906130fe565b60f81b8183815181106119c1577f4e487b7100000000000000000000000000000000000000000000000000000000600052603260045260246000fd5b60200101907effffffffffffffffffffffffffffffffffffffffffffffffffffffffffffff1916908160001a905350600a856119fd9190613154565b9450611955565b8093505050505b919050565b6060600082511415611a3357604051806020016040528060008152509050611b95565b60006040518060600160405280604081526020016139b26040913990506000600360028551611a6291906130fe565b611a6c9190613154565b6004611a789190613185565b67ffffffffffffffff811115611ab7577f4e487b7100000000000000000000000000000000000000000000000000000000600052604160045260246000fd5b6040519080825280601f01601f191660200182016040528015611ae95781602001600182028036833780820191505090505b509050600182016020820185865187015b80821015611b55576003820191508151603f8160121c168501518453600184019350603f81600c1c168501518453600184019350603f8160061c168501518453600184019350603f8116850151845360018401935050611afa565b5050600386510660018114611b715760028114611b8457611b8c565b603d6001830353603d6002830353611b8c565b603d60018303535b50505080925050505b919050565b60008073ffffffffffffffffffffffffffffffffffffffff166002600084815260200190815260200160002060009054906101000a900473ffffffffffffffffffffffffffffffffffffffff1673ffffffffffffffffffffffffffffffffffffffff1614159050919050565b505050565b505050565b611c1a8383611e02565b611c276000848484611c6b565b611c66576040517f08c379a0000000000000000000000000000000000000000000000000000000008152600401611c5d90612e21565b60405180910390fd5b505050565b6000611c8c8473ffffffffffffffffffffffffffffffffffffffff16611fdc565b15611df5578373ffffffffffffffffffffffffffffffffffffffff1663150b7a02611cb56112bf565b8786866040518563ffffffff1660e01b8152600401611cd79493929190612d23565b602060405180830381600087803b158015611cf157600080fd5b505af1925050508015611d2257506040513d601f19601f82011682018060405250810190611d1f919061246f565b60015b611da5573d8060008114611d52576040519150601f19603f3d011682016040523d82523d6000602084013e611d57565b606091505b50600081511415611d9d576040517f08c379a0000000000000000000000000000000000000000000000000000000008152600401611d9490612e21565b60405180910390fd5b805181602001fd5b63150b7a0260e01b7bffffffffffffffffffffffffffffffffffffffffffffffffffffffff1916817bffffffffffffffffffffffffffffffffffffffffffffffffffffffff191614915050611dfa565b600190505b949350505050565b600073ffffffffffffffffffffffffffffffffffffffff168273ffffffffffffffffffffffffffffffffffffffff161415611e72576040517f08c379a0000000000000000000000000000000000000000000000000000000008152600401611e6990612f01565b60405180910390fd5b611e7b81611b9a565b15611ebb576040517f08c379a0000000000000000000000000000000000000000000000000000000008152600401611eb290612e61565b60405180910390fd5b611ec760008383611c06565b6001600360008473ffffffffffffffffffffffffffffffffffffffff1673ffffffffffffffffffffffffffffffffffffffff1681526020019081526020016000206000828254611f1791906130fe565b92505081905550816002600083815260200190815260200160002060006101000a81548173ffffffffffffffffffffffffffffffffffffffff021916908373ffffffffffffffffffffffffffffffffffffffff160217905550808273ffffffffffffffffffffffffffffffffffffffff16600073ffffffffffffffffffffffffffffffffffffffff167fddf252ad1be2c89b69c2b068fc378daa952ba7f163c4a11628f55a4df523b3ef60405160405180910390a4611fd860008383611c0b565b5050565b6000808273ffffffffffffffffffffffffffffffffffffffff163b119050919050565b82805461200b906132c9565b90600052602060002090601f01602090048101928261202d5760008555612074565b82601f1061204657805160ff1916838001178555612074565b82800160010185558215612074579182015b82811115612073578251825591602001919060010190612058565b5b50905061208191906120e5565b5090565b8280548282559060005260206000209081019282156120d4579160200282015b828111156120d35782518290805190602001906120c3929190611fff565b50916020019190600101906120a5565b5b5090506120e19190612102565b5090565b5b808211156120fe5760008160009055506001016120e6565b5090565b5b8082111561212257600081816121199190612126565b50600101612103565b5090565b508054612132906132c9565b6000825580601f106121445750612163565b601f01602090049060005260206000209081019061216291906120e5565b5b50565b600061217961217484612fc1565b612f9c565b90508281526020810184848401111561219157600080fd5b61219c848285613287565b509392505050565b60006121b76121b284612ff2565b612f9c565b9050828152602081018484840111156121cf57600080fd5b6121da848285613287565b509392505050565b6000813590506121f181613955565b92915050565b6000813590506122068161396c565b92915050565b60008135905061221b81613983565b92915050565b60008151905061223081613983565b92915050565b600082601f83011261224757600080fd5b8135612257848260208601612166565b91505092915050565b600082601f83011261227157600080fd5b81356122818482602086016121a4565b91505092915050565b6000813590506122998161399a565b92915050565b6000602082840312156122b157600080fd5b60006122bf848285016121e2565b91505092915050565b600080604083850312156122db57600080fd5b60006122e9858286016121e2565b92505060206122fa858286016121e2565b9150509250929050565b60008060006060848603121561231957600080fd5b6000612327868287016121e2565b9350506020612338868287016121e2565b92505060406123498682870161228a565b9150509250925092565b6000806000806080858703121561236957600080fd5b6000612377878288016121e2565b9450506020612388878288016121e2565b93505060406123998782880161228a565b925050606085013567ffffffffffffffff8111156123b657600080fd5b6123c287828801612236565b91505092959194509250565b600080604083850312156123e157600080fd5b60006123ef858286016121e2565b9250506020612400858286016121f7565b9150509250929050565b6000806040838503121561241d57600080fd5b600061242b858286016121e2565b925050602061243c8582860161228a565b9150509250929050565b60006020828403121561245857600080fd5b60006124668482850161220c565b91505092915050565b60006020828403121561248157600080fd5b600061248f84828501612221565b91505092915050565b600080604083850312156124ab57600080fd5b600083013567ffffffffffffffff8111156124c557600080fd5b6124d185828601612260565b925050602083013567ffffffffffffffff8111156124ee57600080fd5b6124fa85828601612260565b9150509250929050565b60006020828403121561251657600080fd5b60006125248482850161228a565b91505092915050565b6000806040838503121561254057600080fd5b600061254e8582860161228a565b925050602083013567ffffffffffffffff81111561256b57600080fd5b61257785828601612260565b9150509250929050565b600061258d83836126f9565b905092915050565b60006125a18383612b63565b905092915050565b6125b281613213565b82525050565b6125c181613213565b82525050565b60006125d282613058565b6125dc818561309e565b9350836020820285016125ee85613023565b8060005b8581101561262a578484038952815161260b8582612581565b945061261683613084565b925060208a019950506001810190506125f2565b50829750879550505050505092915050565b600061264782613063565b61265181856130af565b93508360208202850161266385613033565b8060005b8581101561269f57848403895281516126808582612595565b945061268b83613091565b925060208a01995050600181019050612667565b50829750879550505050505092915050565b6126ba81613225565b82525050565b60006126cb8261306e565b6126d581856130c0565b93506126e5818560208601613296565b6126ee81613462565b840191505092915050565b600061270482613079565b61270e81856130d1565b935061271e818560208601613296565b61272781613462565b840191505092915050565b600061273d82613079565b61274781856130e2565b9350612757818560208601613296565b61276081613462565b840191505092915050565b600061277682613079565b61278081856130f3565b9350612790818560208601613296565b80840191505092915050565b600081546127a9816132c9565b6127b381866130f3565b945060018216600081146127ce57600181146127df57612812565b60ff19831686528186019350612812565b6127e885613043565b60005b8381101561280a578154818901526001820191506020810190506127eb565b838801955050505b50505092915050565b60006128286032836130e2565b915061283382613473565b604082019050919050565b600061284b6025836130e2565b9150612856826134c2565b604082019050919050565b600061286e601c836130e2565b915061287982613511565b602082019050919050565b60006128916001836130f3565b915061289c8261353a565b600182019050919050565b60006128b46024836130e2565b91506128bf82613563565b604082019050919050565b60006128d76019836130e2565b91506128e2826135b2565b602082019050919050565b60006128fa6010836130f3565b9150612905826135db565b601082019050919050565b600061291d6029836130e2565b915061292882613604565b604082019050919050565b60006129406001836130f3565b915061294b82613653565b600182019050919050565b6000612963600a836130f3565b915061296e8261367c565b600a82019050919050565b6000612986603e836130e2565b9150612991826136a5565b604082019050919050565b60006129a96020836130e2565b91506129b4826136f4565b602082019050919050565b60006129cc6001836130f3565b91506129d78261371d565b600182019050919050565b60006129ef6001836130f3565b91506129fa82613746565b600182019050919050565b6000612a126001836130f3565b9150612a1d8261376f565b600182019050919050565b6000612a356018836130e2565b9150612a4082613798565b602082019050919050565b6000612a586001836130f3565b9150612a63826137c1565b600182019050919050565b6000612a7b6021836130e2565b9150612a86826137ea565b604082019050919050565b6000612a9e600d836130f3565b9150612aa982613839565b600d82019050919050565b6000612ac1601d836130f3565b9150612acc82613862565b601d82019050919050565b6000612ae46007836130f3565b9150612aef8261388b565b600782019050919050565b6000612b076008836130f3565b9150612b12826138b4565b600882019050919050565b6000612b2a600d836130f3565b9150612b35826138dd565b600d82019050919050565b6000612b4d602e836130e2565b9150612b5882613906565b604082019050919050565b600060a0830160008301518482036000860152612b8082826126f9565b91505060208301518482036020860152612b9a82826126f9565b9150506040830151612baf6040860182612be7565b5060608301518482036060860152612bc782826125c7565b9150506080830151612bdc60808601826125a9565b508091505092915050565b612bf08161327d565b82525050565b612bff8161327d565b82525050565b6000612c1082612a05565b9150612c1b82612ad7565b9150612c2682612933565b9150612c32828661279c565b9150612c3d826128ed565b9150612c4882612933565b9150612c54828561279c565b9150612c5f82612933565b9150612c6a82612884565b9150612c7582612b1d565b9150612c80826129e2565b9150612c8b82612a05565b9150612c9682612a91565b9150612ca182612956565b9150612cac82612afa565b9150612cb8828461276b565b9150612cc3826129bf565b9150612cce82612a4b565b9150612cd9826129bf565b9150819050949350505050565b6000612cf182612ab4565b9150612cfd828461276b565b915081905092915050565b6000602082019050612d1d60008301846125b8565b92915050565b6000608082019050612d3860008301876125b8565b612d4560208301866125b8565b612d526040830185612bf6565b8181036060830152612d6481846126c0565b905095945050505050565b60006020820190508181036000830152612d89818461263c565b905092915050565b6000602082019050612da660008301846126b1565b92915050565b60006020820190508181036000830152612dc68184612732565b905092915050565b60006080820190508181036000830152612de88187612732565b90508181036020830152612dfc8186612732565b9050612e0b6040830185612bf6565b612e1860608301846125b8565b95945050505050565b60006020820190508181036000830152612e3a8161281b565b9050919050565b60006020820190508181036000830152612e5a8161283e565b9050919050565b60006020820190508181036000830152612e7a81612861565b9050919050565b60006020820190508181036000830152612e9a816128a7565b9050919050565b60006020820190508181036000830152612eba816128ca565b9050919050565b60006020820190508181036000830152612eda81612910565b9050919050565b60006020820190508181036000830152612efa81612979565b9050919050565b60006020820190508181036000830152612f1a8161299c565b9050919050565b60006020820190508181036000830152612f3a81612a28565b9050919050565b60006020820190508181036000830152612f5a81612a6e565b9050919050565b60006020820190508181036000830152612f7a81612b40565b9050919050565b6000602082019050612f966000830184612bf6565b92915050565b6000612fa6612fb7565b9050612fb282826132fb565b919050565b6000604051905090565b600067ffffffffffffffff821115612fdc57612fdb613433565b5b612fe582613462565b9050602081019050919050565b600067ffffffffffffffff82111561300d5761300c613433565b5b61301682613462565b9050602081019050919050565b6000819050602082019050919050565b6000819050602082019050919050565b60008190508160005260206000209050919050565b600081519050919050565b600081519050919050565b600081519050919050565b600081519050919050565b6000602082019050919050565b6000602082019050919050565b600082825260208201905092915050565b600082825260208201905092915050565b600082825260208201905092915050565b600082825260208201905092915050565b600082825260208201905092915050565b600081905092915050565b60006131098261327d565b91506131148361327d565b9250827fffffffffffffffffffffffffffffffffffffffffffffffffffffffffffffffff03821115613149576131486133a6565b5b828201905092915050565b600061315f8261327d565b915061316a8361327d565b92508261317a576131796133d5565b5b828204905092915050565b60006131908261327d565b915061319b8361327d565b9250817fffffffffffffffffffffffffffffffffffffffffffffffffffffffffffffffff04831182151516156131d4576131d36133a6565b5b828202905092915050565b60006131ea8261327d565b91506131f58361327d565b925082821015613208576132076133a6565b5b828203905092915050565b600061321e8261325d565b9050919050565b60008115159050919050565b60007fffffffff0000000000000000000000000000000000000000000000000000000082169050919050565b600073ffffffffffffffffffffffffffffffffffffffff82169050919050565b6000819050919050565b82818337600083830152505050565b60005b838110156132b4578082015181840152602081019050613299565b838111156132c3576000848401525b50505050565b600060028204905060018216806132e157607f821691505b602082108114156132f5576132f4613404565b5b50919050565b61330482613462565b810181811067ffffffffffffffff8211171561332357613322613433565b5b80604052505050565b60006133378261327d565b91507fffffffffffffffffffffffffffffffffffffffffffffffffffffffffffffffff82141561336a576133696133a6565b5b600182019050919050565b60006133808261327d565b915061338b8361327d565b92508261339b5761339a6133d5565b5b828206905092915050565b7f4e487b7100000000000000000000000000000000000000000000000000000000600052601160045260246000fd5b7f4e487b7100000000000000000000000000000000000000000000000000000000600052601260045260246000fd5b7f4e487b7100000000000000000000000000000000000000000000000000000000600052602260045260246000fd5b7f4e487b7100000000000000000000000000000000000000000000000000000000600052604160045260246000fd5b6000601f19601f8301169050919050565b7f4552433732313a207472616e7366657220746f206e6f6e20455243373231526560008201527f63656976657220696d706c656d656e7465720000000000000000000000000000602082015250565b7f4552433732313a207472616e736665722066726f6d20696e636f72726563742060008201527f6f776e6572000000000000000000000000000000000000000000000000000000602082015250565b7f4552433732313a20746f6b656e20616c7265616479206d696e74656400000000600082015250565b7f2c00000000000000000000000000000000000000000000000000000000000000600082015250565b7f4552433732313a207472616e7366657220746f20746865207a65726f2061646460008201527f7265737300000000000000000000000000000000000000000000000000000000602082015250565b7f4552433732313a20617070726f766520746f2063616c6c657200000000000000600082015250565b7f222c226465736372697074696f6e223a00000000000000000000000000000000600082015250565b7f4552433732313a2061646472657373207a65726f206973206e6f74206120766160008201527f6c6964206f776e65720000000000000000000000000000000000000000000000602082015250565b7f2200000000000000000000000000000000000000000000000000000000000000600082015250565b7f225570766f746573222c00000000000000000000000000000000000000000000600082015250565b7f4552433732313a20617070726f76652063616c6c6572206973206e6f7420746f60008201527f6b656e206f776e6572206e6f7220617070726f76656420666f7220616c6c0000602082015250565b7f4552433732313a206d696e7420746f20746865207a65726f2061646472657373600082015250565b7f7d00000000000000000000000000000000000000000000000000000000000000600082015250565b7f5b00000000000000000000000000000000000000000000000000000000000000600082015250565b7f7b00000000000000000000000000000000000000000000000000000000000000600082015250565b7f4552433732313a20696e76616c696420746f6b656e2049440000000000000000600082015250565b7f5d00000000000000000000000000000000000000000000000000000000000000600082015250565b7f4552433732313a20617070726f76616c20746f2063757272656e74206f776e6560008201527f7200000000000000000000000000000000000000000000000000000000000000602082015250565b7f2274726169745f74797065223a00000000000000000000000000000000000000600082015250565b7f646174613a6170706c69636174696f6e2f6a736f6e3b6261736536342c000000600082015250565b7f226e616d65223a00000000000000000000000000000000000000000000000000600082015250565b7f2276616c7565223a000000000000000000000000000000000000000000000000600082015250565b7f2261747472696275746573223a00000000000000000000000000000000000000600082015250565b7f4552433732313a2063616c6c6572206973206e6f7420746f6b656e206f776e6560008201527f72206e6f7220617070726f766564000000000000000000000000000000000000602082015250565b61395e81613213565b811461396957600080fd5b50565b61397581613225565b811461398057600080fd5b50565b61398c81613231565b811461399757600080fd5b50565b6139a38161327d565b81146139ae57600080fd5b5056fe4142434445464748494a4b4c4d4e4f505152535455565758595a6162636465666768696a6b6c6d6e6f707172737475767778797a303132333435363738392b2fa26469706673582212202a1c1f18c7ff971894aae6778c87525c6afda13184b327deb72754c109cecd2f64736f6c63430008040033",
  "linkReferences": {},
  "deployedLinkReferences": {}
}